10320407410001920033193620076 EMPORIUM MR ART BAR E RESTAURANTE LBELO HORIZONTE                MG00000000002019050120190505000
11AVENIDA FLEMING                   00800                      OURO PRETO     31310490                            003132956472
50320407410001920033193620076 00000000MG651  00002951021000000000520000000000052000000000000000000000000000000000000000000000 
50320407410001920033193620076 00000000MG651  00002851021000000000050000000000005000000000000000000000000000000000000000000000 
50320407410001920033193620076 00000000MG651  00004151021000000000920000000000092000000000000000000000000000000000000000000000 
50320407410001920033193620076 00000000MG651  00004251021000000000570000000000057000000000000000000000000000000000000000000000 
50320407410001920033193620076 00000000MG651  00004451021000000000520000000000052000000000000000000000000000000000000000000000 
50320407410001920033193620076 00000000MG651  00004651021000000000520000000000052000000000000000000000000000000000000000000000 
50320407410001920033193620076 00000000MG651  00004751021000000000050000000000005000000000000000000000000000000000000000000000 
50320407410001920033193620076 00000000MG651  00004851021000000000050000000000005000000000000000000000000000000000000000000000 
50320407410001920033193620076 00000000MG651  00003351021000000000520000000000052000000000000000000000000000000000000000000000 
50320407410001920033193620076 00000000MG651  00003251021000000000520000000000052000000000000000000000000000000000000000000000 
50320407410001920033193620076 00000000MG651  00004951021000000000050000000000005000000000000000000000000000000000000000000000 
50320407410001920033193620076 00000000MG651  00005251021000000000050000000000005000000000000000000000000000000000000000000000 
90320407410001920033193620076 0000000000000004340
